:020000040000FA
:10000000E00C0010E5010000ED010000EF01000030
:1000100000000000000000000000000000000000E0
:10002000000000000000000000000000F1010000DE
:100030000000000000000000F3010000F5010000D6
:10004000F7010000F7010000F7010000F7010000D0
:10005000F7010000F7010000F7010000F7010000C0
:10006000F7010000F7010000F7010000F7010000B0
:10007000F7010000F7010000F7010000F7010000A0
:10008000F7010000F7010000F7010000F701000090
:10009000F7010000F7010000F7010000F701000080
:1000A000F7010000F7010000F7010000F701000070
:1000B000BF1B0000F7010000F7010000F70100007E
:1000C00000F002F800F03EF80CA030C80838241800
:1000D0002D18A246671EAB4654465D46AC4201D180
:1000E00000F030F87E460F3E0FCCB6460126334274
:1000F00000D0FB1AA246AB4633431847E027000066
:1001000000280000103A02D378C878C1FAD8520704
:1001100001D330C830C101D504680C6070470000BD
:100120000023002400250026103A01D378C1FBD813
:10013000520700D330C100D50B6070471FB51FBDFB
:1001400010B510BD02F07BFB1146FFF7F7FF00F082
:1001500025F802F093FB03B4FFF7F2FF03BC02F0B3
:1001600099FB000070B505460C46164602E00FCC20
:100170000FC5103E102EFAD2082E02D303CC03C5B1
:10018000083E042E07D301CC01C5361F03E02178B9
:100190002970641C6D1C761EF9D270BD00F03CF80D
:1001A00001F098F900F0FCFF01F0E3F901F040F8EC
:1001B00001F0E7F900F00EF801F06BF800F040F9FB
:1001C00000F0B0FB00F0BAF900F09AF802F0E2F9A2
:1001D000F0E7000002480021017041707047000004
:1001E000500000100748804707480047FEE7FEE739
:1001F000FEE7FEE7FEE7FEE704480549034A054B34
:100200007047000041140000C1000000E009001028
:10021000E00C0010E009001010B50C4801680C4A11
:10022000114301600B490C48006802F011FA0B49B8
:10023000401EC8600120486010BD084A916800BF98
:10024000064A9268521A8242FAD37047808004406C
:100250004002010040420F00180000100040014021
:1002600010B501F075F8002010BD00B589B00691F9
:10027000059034221F4804927D21C900006802F0D5
:10028000E7F907901C4A694604A89047009809B00E
:1002900000BD00B589B03222049206910590164A3D
:1002A000694604A89047009809B000BD00B589B020
:1002B0000591069033230F48049307927D21C900CE
:1002C000006802F0C5F908900B4A694604A89047F7
:1002D000009809B000BD00B58BB039200090002017
:1002E0000190029003900490034A06A96846904743
:1002F0000BB000BD18000010F11FFF1FFFFFFFFF34
:1003000070B49A4908780A69002877D1984C9948BE
:10031000237805780026AB4205D0FF2B14D003705C
:1003200082604680C6600378002B67D084689B1E7D
:10033000121B082B70D21D007D442D796D19AF441E
:10034000050F1B2735424F5E2570E9E70223C35E88
:100350005203DB10D31AC2685510EB1852114BE050
:100360000223C35E12031B11D31AC2685510EB1887
:10037000D510EB1892113FE00223C35ED2025B114D
:10038000D31AC2685510EB189510EB18521133E0D0
:100390000223C35E5202DB11D31AC2689B18D51028
:1003A0005B1B55115B1B1212D2183AE00223C35E8D
:1003B000D2015B12D31AC2689B1815115B1B9511F1
:1003C0005B1BD21118E00223C35E5201DB12D31A69
:1003D000C2689B1855115B1BD5115B1B52120BE0B9
:1003E0000223C35ED2005B13D31AC2689B18951117
:1003F0005B1B15125B1BD2129A1A12E01DE002233E
:10040000C35E5200DB13D31AC2689B1895115B1BA5
:100410001212D21805E0FFE720230B700A234B705D
:1004200006700223C260C35E9A18534BD3181A1485
:100430001219524C82601B1943804A6170BC70478C
:10044000F0B44A4881680078002873D14C48494F7D
:10045000008DBA88904224D0B880202817D006DCBE
:1004600004280ED008280ED0102807D10DE040280F
:100470000FD080280FD0FF3801280FD000207870CF
:1004800058E0022008E0032006E0042004E00520F4
:1004900002E0062000E00720787005E00820787070
:1004A00002E07878002845D036488CB2028E94421B
:1004B00004D2080C401E89B200040143A01A7B78C4
:1004C0001022D61A80B2F04001232F4A9B0201E08D
:1004D000401E80B28500AD18ED182D8E2D1B2DB25B
:1004E000002D01DD0028F3D1BD886D1E8700BF18E7
:1004F000FF18BF8E3F1B3FB2002F04DCA84202DA78
:10050000401C80B2F2E78500AA18D218138E528ED2
:10051000E31A9BB25A43B040D3001B0CC018090C1D
:1005200080B209040143D20404D5401C090C80B2F6
:10053000090401430D48C160F0BC704710B40B4A78
:100540001178D06800290BD10D481446407DE4682D
:10055000C3070B48C16980696118002B03D0401A9A
:10056000106110BC70470818FAE700005000001036
:10057000F800001000000010FF7F00000180FFFF66
:10058000D80000100034000000300000FA4941207B
:100590004861FA48422141638163C121C163F8483F
:1005A0000168022291430160F64801681203114379
:1005B0000160F548816B1022914381630521F34866
:1005C000490201600021C160F14801707047EF48A5
:1005D0000168F04A11430160ED490120087070473D
:1005E000EA480168EC4A11400160E94900200870BE
:1005F0007047E64B10B48100C9180A691C680122D3
:10060000824001200006104304431C600869002852
:10061000FCDA0869196880B2E04C94432140196003
:1006200010BC7047F8B5DE4DDE4FD849012228696D
:100630000523086838430860980040180469002CB6
:10064000FCDA00690C6880B216469E40D34BB34377
:100650001C400C607F23DB019842E8D36420FFF745
:10066000ECFDF8BD30B4D04A00205063CF4801689B
:10067000202399430160C149C0230B610468802392
:100680001C430460CA4C25689D432560C023D36188
:100690000368042213430360052000070369134322
:1006A0000361C220C860C12008624862B548016881
:1006B000C21411430160B04A136B02210B43136350
:1006C000BC4A53680124234353604161BA48016125
:1006D0000268C7231A43026042680A43426000214D
:1006E000416130BC704710B5B44801688906FCD53B
:1006F0006420FFF7A2FD10BD10B405231B07196984
:100700000424A1431961AC49CA68520703D58A6819
:10071000CA685207FBD40830C0B28860FF208860E6
:10072000C868C006FCD4886888681969C0B22143CB
:10073000196110BC704710B405231B071A69042403
:10074000A2431A619C4A90609160D068C006FCD4B4
:1007500018692043186110BC704710B505221207B4
:10076000116904239943116193498860C868C006E0
:10077000FCD41069184310610A20FFF75EFD10BD1C
:10078000F0B505208646042305200007016999433A
:100790000161894AD168490703D59168D168490741
:1007A000FBD430219160FF21916091609160916054
:1007B00091609160D168C906FCD491689168946891
:1007C000C9B226069468E7B29468BC4625069468C8
:1007D0009268E4B20769D2B21F4307618808B60C79
:1007E00080196746BE038019AD084019A507451951
:1007F0007348A40845609501641904818C07550964
:10080000A40F6D0164198472CC07E40F8907C90F26
:10081000C47201738C4201D1012100E000214173B7
:10082000510900D001218173002905D07046401E76
:100830000006000E8646A7D1F0BD7047F8B56148A6
:100840000090007F012701090A295CD04C4801680B
:100850000225294301605C48816829438160182191
:100860002320FFF768FF7D20C000FFF7E6FCFF2490
:10087000641CE4B22001401CC5B2222205200007FE
:10088000036904218B4303614B4B9A609D60DA68D6
:10089000D206FCD402690A4302616420FFF7CDFC52
:1008A0003A4A0126101D0069106848493B46084332
:1008B0001060B000801801690029FCDA0069116835
:1008C00080B2B340354E9E4331401160404988426A
:1008D00001D90F2CCCD300212320FFF72CFF28486F
:1008E000026802218A4302607D20C000FFF7A5FC58
:1008F0006420FFF7A2FC2220FFF7FEFEA8420CD0E6
:100900002F490F70F8BD0407240F2001401CC5B209
:1009100029462220FFF70FFFEAE7A02004430098B2
:100920000477F8BD30B41A4B2A4958688A68121AFD
:100930000A2AFBD315484269006992B280B2101AA4
:100940005A78254D1407A40E285105200007056983
:10095000042425430561896859600169A143016147
:10096000901C00071D49000F085C13498860521C49
:100970005A7030BC70470000804004404040044042
:1009800000800150808004400082044000C001408B
:100990001000001003000100FCFFFEFFFFFFFFFE40
:1009A00014C00140200000010040044000800050BD
:1009B000000200500080044000000440800000500D
:1009C00068000010F8000010000001500200000153
:1009D00080B200000040014098000010A4280000F0
:1009E000F0B5F94889B041690069491140114042A8
:1009F00004B2F6480DB2014610314EC96F464EC7DB
:100A000020300FC80FC7002C04DA6042012604B260
:100A1000B60303E06842032605B2B6030020694628
:100A20000422002D2F4609DA07412346E41B034127
:100A30005B191DB20B8824B29B1908E007412346BD
:100A4000FC180341EB1A1DB20B8824B2F31A401CA8
:100A5000891C521E12069EB2120EE2D1FFF762FFEF
:100A600000200A2302A9002DA4460BDA021D2F46FE
:100A70001741E41B674617417A1915B20A8824B258
:100A800092190AE0021D2F4617413C19674617418B
:100A9000EA1B15B20A8824B2B21A401C891C5B1EDC
:100AA0001B0696B21B0EDED1FFF73CFFA1B2C64873
:100AB000C74A01844684914204D20178002901D1B9
:100AC0000321017009B0F0BDF0B4C2488368016829
:100AD0004268C91AC36852429A180369591843698F
:100AE000D31A82698A1AC169C918036AD21A436A79
:100AF0005918836A9B18C26A8A1A016B591A436B88
:100B00009A18836BC06B5F18151AAF4803220678DA
:100B10009203038BC469002F06DB002D01DB00214B
:100B200006E00121890303E0002D06DA0121C90353
:100B300000290ED0914219D100E01146002B06D0B9
:100B400001229203934211D1002E0DD00EE0641EBB
:100B500002E0934202D1641CC46107E00122D20387
:100B6000934203D1002E01D1042202700761456136
:100B70000183F0BC7047F8B5052000070269042125
:100B80000A430261944F954C00259048425D052030
:100B90000007036904218B430361914B9A60DA6873
:100BA000D206FCD402690A4302610A20FFF745FB22
:100BB0008C480121006922688B4B08461A43226049
:100BC0008A0012191369002BFCDA1269266893B2A5
:100BD00002468A40854991430E40266022690021E1
:100BE00022683A4322608A0012191669002EFCDA44
:100BF0001269266892B288407C4981430E40266083
:100C0000991AAA0073486D1CEDB28150102DBCD307
:100C1000F8BDF8B576480090407F01090A2939D01F
:100C20000525FF242D070427641CE4B26007060E87
:100C300029692020B9432961694988608E60C868A4
:100C4000C006FCD42869384328616420FFF7F5FA10
:100C5000FFF791FFFFF738FFFFF7C2FE286938431F
:100C600028615948018C6348814201D2072CDBD9A5
:100C7000554D002028700A20FFF7DFFA2020FFF7EB
:100C80003BFD00090001B04201D1082C0BD301202B
:100C90002870F8BD0407240F6007060E3146202097
:100CA000FFF749FDE4E7A020044300984477F8BD2E
:100CB000F8B50821084307462121052000070269ED
:100CC0000425AA430261464EF268520703D5B26872
:100CD000F2685207FBD40831B160FF24B460F168B8
:100CE000C906FCD4B168B168052000070269C9B221
:100CF0002A430261B94226D0014630460B692122BF
:100D0000AB430B6182608760C268D206FCD40A697B
:100D10002A430A610B692122AB430B61C3685B075D
:100D200003D58368C3685B07FBD4083282608460A4
:100D3000C268D206FCD4826882680B69D2B22B43A7
:100D40000B61BA42DAD1AF20C000FFF776FA212159
:100D5000052000070269AA430261F36832465B0777
:100D600003D59368D3685B07FBD408319160946026
:100D7000D168C906FCD4916891680369C9B22B4354
:100D80000361B9421ED1064614463220FFF755FAD8
:100D900030692121A8433061E068400703D5A0688D
:100DA000E0684007FBD40831A160FF20A060E06844
:100DB000C006FCD4A068A0683169C0B22943316183
:100DC000B842E2D0F8BD000068000010A42800007E
:100DD00088130000980000100100000100C00140CD
:100DE0000000044004C0014002000001FFFFFFFEBC
:100DF000F80000101027000070B505231B071869C4
:100E00000425A8431861FC4E1020B060FB4881689F
:100E1000FB4C61608268521A0A2AFBD31969294384
:100E20001961806860601869A84318611520B06076
:100E3000FF2060700024FFF775FD641CE4B2102CE5
:100E4000F9D370BDF8B5EF4C022567692669FFF745
:100E500092FEFFF739FE218B002914D00120800378
:100E6000091A1BD0091A25D0814231D12069616944
:100E70004042884202DB032292030092884227DA32
:100E80000720400314E061692069884201DA0022EA
:100E9000009288421CDB0120400309E0616922695D
:100EA00049428A4200DB00908A4211DA0320400363
:100EB00000900DE02069616940424942884202DAAF
:100EC0000122D2030092884202DB05204003EFE7B3
:100ED0002069002801DB024600E0424261690029E6
:100EE00001DB0B4600E04B42D218801BC91B92B2BB
:100EF000002801DB034600E04342002901DB0E46E7
:100F000000E04E429B199BB2012D02D96D1EEDB23D
:100F100016E0160A9E4215D892089A4210D901226C
:100F2000009B52039B1A17D09B1A1AD003267603F4
:100F30009B1B1BD0934203D1002801DA002901DB5F
:100F4000002D82D1FFF71CFCA07B0225002812D0C7
:100F5000207800284DD0F8BD0028F1DB0029F1DB16
:100F6000EEE70028ECDB0029ECDAE9E70028E7DA15
:100F70000029E7DAE4E7009900290DD003204003B7
:100F80000A1A0DD001214903511A0ED0814214D101
:100F9000607B00280CD010E0607B002803D00CE0C0
:100FA000607B012809D1702003E0607B012804D117
:100FB0007120FFF77DFEFFF7E3FB617B0020012935
:100FC0000ED1E07A90490128009804D0884206D9D1
:100FD0000020C04304E0884201D8012000E0002046
:100FE00061680818E061A07B0028B4D02078002850
:100FF000B1D12570F8BD70B5844D2868844908408A
:1010000028607F4C002020707E4800780F282BD06D
:10101000FFF718FF28687F4908432860012005234F
:1010200020701B0718690425A8431861724E102010
:10103000B0607248816861608268521A0A2AFBD3E4
:10104000196929431961806860601869A8431861AB
:101050001520B060FF2060700024FFF763FC641C63
:10106000E4B2102CF9D370BDFFF785FD70BD70B4EC
:1010700064480325C1694162428C0424960B0246F0
:101080001378B603AD03128B002E0DD0AE4207D1FC
:10109000002A07D021038A4202D1002B00D104701C
:1010A00070BC7047491E02E0AA4203D1491C41624C
:1010B00070BC70470121C9038A42F9D1002BEED0E0
:1010C00070BC7047F8B5544E4E4C707E0521070732
:1010D0007D203F0F0F2509070422C000638C042FD9
:1010E00035D006DC012F0BD0022F0FD0032F53D1A8
:1010F00011E0052F38D0092F42D00F2F4CD149E0F5
:10110000208A60856069E0622570F8BD6385208C67
:10111000E0622570F8BD0B6913430B61FFF78DF892
:10112000FFF72EFB608C000900016085E17A002941
:1011300002D0012108436085607B002803D0608DC8
:10114000022108436085606AE0622570F8BD0B6982
:1011500013430B61FFF771F8FFF712FB60686085BE
:10116000000CE0622570F8BD0B6913430B61FFF7BB
:1011700064F8FFF705FBA07A60852089E06207E04C
:101180000B6913430B61FFF758F8707E28437076A4
:101190002570F8BD002020706385606AE062F8BDAC
:1011A00010B51E49412048611D48422141638163B9
:1011B000C121C1631B4801680222914301601A48A2
:1011C00001681203114301601848816B102291439A
:1011D000816305210D48490201600024C46008486C
:1011E0000470FFF73FFA0748611E04614461018300
:1011F000C907C161047010BD0000044000400140F7
:1012000010000010680000100060000000C00140E5
:10121000FCFFFEFF03000100F800001080400440C6
:10122000404004400080015080800440008204401F
:10123000F8B53F4801688906FCD56420FEF7FDFF3C
:101240003C4D3D4F3D49012228690523086838433C
:101250000860980040180469002CFCDA00690C68EA
:1012600080B216469E40364BB3431C400C607F2331
:10127000DB019842E8D36420FEF7DFFFFFF7DEFAD8
:10128000FFF7C7FCFFF7B7FE2E4880682E4948607D
:10129000F8BD70B5FFF746FB2A4CA0682A4D696877
:1012A000401AFF21F531884201DDFFF7A4FEA06856
:1012B0006860FFF709FCFFF793FB244C0423E06907
:1012C0006062618C8A0B032192038903002A0DD08E
:1012D0008A4219D1218B002906D01803814213D1EB
:1012E000207800280FD00FE0401E03E0228B8A42B6
:1012F00002D1401C606207E00120C003824203D19A
:101300002078002800D12370FFF7DCFE618D0846AD
:10131000A18D80B2090408432178002906D010224B
:101320002A700F2901D180222A706970A86070BDCF
:101330008000005014C001402000000100C00140A6
:10134000FFFFFFFE00400140500000106800001049
:1013500070B54C490020496AC905090F102929D2E6
:101360000A007A441279921897442407090B0D0F4A
:1013700011131517191B1D1F212343481AE0434859
:1013800018E0434816E0434814E0434812E043485D
:1013900010E043480EE043480CE043480AE043486D
:1013A00008E0434806E0434804E0434802E043487D
:1013B00000E04348334D696AC906890E891C01F073
:1013C00047F940490A6B404C9207920F11D0012A0D
:1013D00004D0022A2BD0032A2AD10DE00868800706
:1013E000800F06D0012804D0022827D003281FD15F
:1013F00024E0364820601BE008688007800F06D094
:1014000001280AD0022819D0032811D116E0A868B3
:10141000C005800F05D02D4809E0A868C005800FE1
:10142000F9D1A868294AC006C00E401C504320606C
:10143000896B206801F00CF9206070BD0020F6E790
:1014400070B420480024046001234360446043607A
:101450004168C907FCD00B4923228A601C4A956B5E
:101460008026B5439563CA68D207FCD00321016387
:10147000436344634363416BC907FCD0836370BC1F
:10148000704700000080044020A1070000350C00D8
:10149000E0C81000C05C1500006A180040771B000F
:1014A00080841E00C0912100009F240040AC2700D2
:1014B000E032290020402C00604D2F0000D4300085
:1014C00040E133004080044018000010001BB700CA
:1014D0000082044010B5FEF7C3FE10BD10B572B611
:1014E000FEF7F9FE10BD10B5044672B60146FEF7D0
:1014F000D0FE62B6002805D172B621460846FEF736
:10150000B4FE62B610BDF7B5002582B0040B0F46DD
:101510000646009472B621462046FEF7BAFE62B631
:10152000002824D172B621460846FEF79EFE62B618
:1015300000281CD104980024002817DD72B60099F9
:101540000846FEF7A6FE62B6002810D172B6311921
:10155000012238195202FEF7A9FE050062B606D133
:10156000FF34FF34049802348442E7DB284605B098
:10157000F0BD10B500F0AEFA00F068F800F076FFAC
:1015800010BD10B500F07AFF10BD70477047000025
:10159000F8B50546F748052244685202F649F7486F
:1015A000FEF7E0FDF649EE07C8694F6A8446886A8F
:1015B0008B690A6A86460BD00E7D6046761C0E75D6
:1015C0004E694E648B640A65C86470464F658865D1
:1015D000AE0710D54E694E648B640A656046C864D8
:1015E00070464F65E74A8865E748137B0377537B6E
:1015F0004377927B8277680704D5084630302DC840
:1016000060312DC1E04D0022E81C8523DB004678C7
:101610002146B61871408678571CF6197140240C83
:10162000801C921C89B224045B1E0C431B041B0CFF
:10163000EDD105225202D449D4482C60FFF763FF54
:10164000002801D0B020F8BD8020F8BDF0B4C94812
:1016500000220168CA48CD4D026042608260C260CB
:10166000026142618261C261026242628262C2625E
:10167000026342638263C263E81C00238524E400A2
:1016800046780A46F618724086785F1CF619724052
:10169000090C801C9B1C92B20904641E1143240493
:1016A000240CEDD12868814211D1291DB4481EC9EE
:1016B000064614361EC6294614311EC91EC6EB6ADC
:1016C000AA6A696AC36382634163F0BC7047F0BC75
:1016D00006205DE7BFF34F8FAE49AD48C860BFF34A
:1016E0004F8F00BFFDE7CB218901411AA44809D0E3
:1016F000A94A891808D0A94AD14201D1022104E09F
:10170000002102E0012100E00321417380207047A5
:10171000A3490978002901D0C020704730B4984906
:101720004A7D0C46D5079E4AA36952690340024090
:10173000981AE269002D04D0101AC86130BC8020CC
:1017400070478018F9E7002802D00121814201D1B9
:101750008020704749000904090CF7D1A020704788
:10176000802801D9A02070478E4A00211180844929
:10177000C88480207047F8B504468148C68C8948E3
:101780000588AE4201D8A020F8BD7F4F002D05D1BD
:10179000052252027849381DFEF7E4FCE800218852
:1017A000C019018661884186A18881862030A1798F
:1017B0008175E179761EC175AE4209DC05225202BF
:1017C00071497248FFF79FFE002801D0B020F8BD94
:1017D00074480188491C01808020F8BD10B50320A1
:1017E000FFF781FE002801D0B02010BD802010BD81
:1017F00041084900202912D008DC00290FD0042913
:101800000DD008290BD0102907D108E0402906D0B7
:10181000802904D0FF39012901D0A02070476149F7
:101820000022574B8A801A85488080207047F0B587
:1018300005465B4883B0848A0078002802D0C02027
:1018400003B0F0BD57488088854241D1002D2CD08F
:101850005448C1880291611A09B20091002146885A
:101860000F460F43710801204900400300F0F0FECD
:101870000146B8B20A0410438AB2019100998A4223
:1018800026DC4149AB005B18012189025F18029AEE
:10189000BA850290009900F0DBFEF885701E854243
:1018A0002ED10020F10707D015E00522520232495F
:1018B0003248FEF757FC23E03B48008E001B05B280
:1018C0002946029800F0C4FE019900B2A94202DD47
:1018D000A02003B0F0BD3C862B4978860522314D0F
:1018E0000E8352022948FFF70EFE002802D0B020D6
:1018F00003B0F0BD2249688808852248FF210170A5
:101900002848C4808188491C8180802003B0F0BDB4
:10191000002805D0042803D0082801D0A020704753
:101920001749488780207047F8B504461448468F09
:10193000002E1DD0134A527B120604D52246C943FD
:101940008CB2D14389B2091B8FB2164D31462C811E
:10195000384600F07DFE68814643B81BA8810848E0
:10196000EC81C481012101740020A8808020F8BD91
:10197000E020F8BDD4280000043000001C01001055
:10198000D8000010F800001018010010003000000E
:101990000400FA0500ED00E0CFE9FFFF7363FFFFED
:1019A000500000101C00001018050010F8B5414A46
:1019B000044640069688400EB04201D0E020F8BDB3
:1019C0003D4B5F8FB84239D83C48407B000601D57B
:1019D000C84381B238480722C38936485203C089B8
:1019E000411A59188DB201214903954203D9884201
:1019F00001D2002501E08D4202D2904200D9304D43
:101A0000200602D52C48C58151E0002C18D00120B9
:101A10003946C00300F01CFE8004000C84460021FF
:101A200008460843234980B2098A6A1A92B213040D
:101A3000184353001F4A5289934208D2A020F8BD90
:101A4000052252021F492048FEF78CFB0CE01F4A7A
:101A5000A3009B180122D2029A1800929186614637
:101A600000F0F6FD009AD0861248A742058211D9EF
:101A7000761C86800546A989204648430E4E394685
:101A800000F0E6FD2989401869894C430019E88176
:101A9000F0810CE0052252020C490D48FFF733FD9E
:101AA000002801D0B020F8BD034900200874802030
:101AB000F8BD00001C000010D8000010F800001055
:101AC000FFFF0000043000001C010010180100108E
:101AD00000300000F0B48D4AD020D0638C480168FB
:101AE0001025A94301608B4CD021E16101680423DA
:101AF00099430160D021916387490E685715BE4311
:101B00000E60864FD026FE620E681715BE430E602B
:101B1000C026A6620E68802426430E6080490E68A7
:101B200026430E60C22191607E490C681E04344336
:101B30000C607D4C66681E4366600124CC617B4965
:101B400002260E610E6887273E430E604E68062708
:101B50003E434E600026966175494C60CC608C60B7
:101B600081682943816001692943016181681943C2
:101B70008160016999430161C1696E4A1143C16184
:101B80006D49980608606D488660F0BC704710B5D6
:101B90006A48816800290FD0694B42689B689A1A8D
:101BA0008A4209D95C490A6801239B029A430A6068
:101BB00000218160FFF7E5FC00F00AF910BDF8B5DF
:101BC000534DA8695D4C5F4F2178C0061ED55E4815
:101BD0000068C0060AD4FFF7D8FC3868800502D533
:101BE00000F064FC08E000F0B5F805E003290AD035
:101BF00000F0DFF8FFF7C5FCE86910210843E86151
:101C000000BF00BFF8BD00F07CFCF5E740488069EC
:101C10004007F7D54A4880686060A0780126401CDC
:101C2000C0B23D4DB602A07001293DD0012801D1BE
:101C300000F0EFFC454800694007607814D40028A4
:101C40005CD1E078396840008905C90F0818E07058
:101C5000A078401C0007000F01284FD800F0D9FCE5
:101C6000607800281CD049E0012847D1E1780806B7
:101C7000286802D5B043286005E030432860344826
:101C80000268B24302604800E070A078401C000780
:101C9000000F012832D800F0BCFC607800282DD15C
:101CA0002868B043286029E02849096949071BD4FE
:101CB000000707D100F070FB2868B0432860204877
:101CC000806860606078012818D1E178080628688B
:101CD00002D5B043286005E0304328601C48026804
:101CE000B2430260480008E06078002806D1E0783E
:101CF000396840008905C90F0818E0700448C169B7
:101D000004221143C16100BF00BFF8BD0040044080
:101D10000080035080400440008001504040044057
:101D20000002015080800440008004400080054093
:101D3000C0400440FF0F000000E100E03000001050
:101D400000400140000801504000035000000350D3
:101D500000100150FC4900200870FC4AFC49938A9D
:101D60000B8052694A600A7B002A02D0F02A00D018
:101D70004860F84AD021D161F74A9163F74AD162AD
:101D8000F749CB6904221343CB6100BF00BF0B6945
:101D900013430B61F34A01211170F3490870F349B1
:101DA0000870F449F2480860F3488068F349086015
:101DB0007047F34801680122920291430160E848AC
:101DC0000169042291430161EA49002008607047DB
:101DD0007047F8B5DC4EEB4C7078192802D01A2801
:101DE00002D115E0FFF776FCD94D697B002973D04D
:101DF0007278FF27E44E582A61D01ADC502A42D06C
:101E00000EDC1C2A69D03D2A68D03E2A67D18FE0BB
:101E1000607821780002401880B2FFF764FCF8BDBA
:101E2000552A13D00020C043562A17D0572A56D11E
:101E30001AE010465938072851D203007B441B7919
:101E4000DB189F442E574D51545D650020780028C3
:101E500000D00120687537708020F8BDFFF758FC6E
:101E60000021A9613770F8BDFFF752FCE2782178B4
:101E700012068918A278637812041B02D2188918F6
:101E8000A9613770F8BDC148FFF742FCA969227803
:101E9000090C09048918627812028918A96137703F
:101EA000F8BDBB48FFF734FC62782378298B120613
:101EB0001B0489B2D2185118A9613770F8BDE178B6
:101EC000207809064018A17862780904120289185E
:101ED0004018E861377005E03EE031E01CE033E097
:101EE000207830708020F8BD20787070FAE7207874
:101EF000B070F7E76078217800024018A884F1E715
:101F0000607821780002401880B2FFF729FCF8BD04
:101F10009C48FFF730FCF8BD00206875E861A861B7
:101F2000607821780002401880B2FFF761FCF8BDAC
:101F3000607821780002401880B2FFF778FCF8BD85
:101F400001290BD002290DD0022905D3512A0BD02B
:101F5000532A0ED003290FD29020F8BD0120FFF79D
:101F600017FBF8BD022065E060783073207870734D
:101F7000B8E72078B073B5E7352A1AD00CDC302AE0
:101F800022D004DC1E2A54D01F2A0DD10EE0312AA3
:101F900026D0332A08D12FE0362A0DD0392A2ED068
:101FA0003A2A30D03B2A3BD0F020F8BDFFF716FC90
:101FB000F8BD2078707695E76078217800024018A7
:101FC000E881012028748DE7E1782078090640181F
:101FD000A17862780904120289184018286381E701
:101FE000E178207809064118A0786278000412028E
:101FF00080180818686375E72078307672E72078D3
:10200000FFF786FCF8BD607821780002401881B2A5
:10201000E078A2780002801880B2FFF785FCF8BD56
:10202000607821780002401881B2A078FFF7BEFCEA
:10203000F8BD0420FFF7ACFAF8BD434948784028C2
:1020400049D020DC332842D010DC1E283BD006DCEF
:10205000192838D01A283ED01C284CD133E01F282C
:1020600031D030283FD0312845D13CE035380A28DE
:1020700041D202007A44127992189744282C3C3CB1
:102080002834303C2C2C58282DD010DC53281ED05E
:1020900006DC41281FD050281DD051282BD11AE032
:1020A000552814D056280ED0572824D11BE0593873
:1020B000072820D202007A441279921897440B0B19
:1020C0000707070B17000020887080207047012049
:1020D000887081207047022088708220704703201A
:1020E00088708320704704208870842070470820FF
:1020F000887088207047F0207047F0B5124A144B62
:1021000055781E46D11C01248120203685B0572DDC
:102110007DD044DC382D7BD00BDC303D082D78D2CF
:102120002F007F443F79FF19BF44FFF1F0EF73FBAD
:1021300073ED532D6ED02DDC392D6CD03D2D6BD031
:10214000512D66D19FE000003C00001050000010AF
:10215000D80000108040044000400440404004404B
:1021600000800350300000103100001032000010D9
:10217000A08601003800001000400140340000102B
:10218000008001503F000010F8000010FFFF000029
:102190000000FFFF542D75D0552D3AD183E0AC4F90
:1021A0003F88BC463F0A04976746FFB20397712DEC
:1021B00025D00BDC583D072D2BD22F007F443F79D3
:1021C000FF19BF4480E7988C9094A600A04E723D02
:1021D000766837043F0E0297F7B201979C4F082D9F
:1021E000BF7A00979A4FFF7ABC4612D22F007F44E5
:1021F0003F79FF19BF441125CE29CE3CCE1D04984E
:1022000048700F7002209070822005B0F0BD4EE043
:10221000BCE0BFE03FE0B1E0AAE0300EC870300C97
:10222000887002984870019808700420907084208B
:10223000EBE7188903124B7008700220907082201F
:10224000E3E7009B0B709470DFE76046002801D045
:10225000E020DAE7049808710398C8700298887043
:102260000198487000980870052090708520CCE790
:1022700060464870187B0870002018730220907028
:102280008220C2E70BE0307B4870707B0870022030
:1022900090708220B9E7B37B0B709470B5E71B7D1B
:1022A0000B709470B1E75B7D0B709470ADE798692B
:1022B000030ECB70030C8B70030A4B700870042064
:1022C00090708420A1E7D869030ECB70030C8B704B
:1022D000030A4B70087004209070842095E73378CF
:1022E0000B70947091E773780B7094708DE7B378EE
:1022F0000B70947089E7988C030A4B700870022069
:102300009070822081E73DE00BE02DE025E018E0B1
:102310000BE0D88C030A4B7008700220907082206A
:1023200073E7737E0B7094706FE7186B030ECB70BE
:10233000030C8B70030A4B7008700420907084208B
:1023400063E7586B030ECB70030C8B70030A4B7062
:10235000087004209070842057E702204870A3235F
:102360000B709070822050E7337E0B7094704CE7B6
:102370001B8D1D0A4D700B70947046E75B8F0B70C0
:10238000947042E7337F0B7094703EE7737F0B705D
:1023900094703AE7F02038E7F8B52E4C2E4E2178AD
:1023A0000023012730782D4D06290FD20A007A44E8
:1023B000127992189744021F2C2F4249010606D425
:1023C0006070FFF79AFE30702F702770F8BD4006DE
:1023D000400E6070FFF731FE3070F02807D02F708C
:1023E000A078002801D002202DE004202BE02B70E3
:1023F00005202070F8BDA0781949401E0006000E87
:10240000A070095C31702F70F4D105202070F8BDE8
:102410002B70032017E0A178114A491E0906090E06
:10242000A17050542B70F2D10E490A68012080022D
:1024300002430A600C490A6882430A60FFF7C9FC3C
:1024400030702F7005202070F8BD2B70F8BD000093
:10245000D80000103C0000103300001031000010C4
:102460003F00001000800150001001506A48694987
:102470004160002101706948017070476748017828
:1024800003290FD0032101706549D320C861654934
:10249000D22088636449D320C86264480169042259
:1024A00091430161704770477047704730B45A4894
:1024B0005F4A4468207A030015D0D907C90F03D0BA
:1024C000401EC0B2255C9560491C5B1C99420ADA2B
:1024D000401EC0B2255C9560401EC0B2255C956070
:1024E000891C9942F4DBD068400703D59068D06816
:1024F0004007FBD44F48016880229143016030BC03
:102500007047F8B54A4CA068C5B2FF2D2AD0002DFF
:1025100001D1FFF7DFF88020474E05433570474D66
:1025200000202870FFF738FF30783B4FF02806D0A6
:102530004349012048732878022802D003E0D020C4
:102540000FE0FFF729FF2878052806D0A068307033
:10255000FFF722FF28780528F8D13078802801D0AD
:10256000E02038703348016880221143016035480B
:10257000426804218A43426042680A434260022062
:102580002061206887210843206060680621084395
:102590006060F8BDF0B4204D1E496868884201D0E3
:1025A000084600E02848294C1B4D237922696169BF
:1025B00064782D7824012C4325062D0E01D0204C63
:1025C00025730C01240F2C43C471A4460C02260E63
:1025D0000C04250E8671457101711404240EC4701B
:1025E000827043705A275B1C7B40921C5A40E41C4B
:1025F0005440091D61406D1DB61D4D4064466E403E
:10260000E41D744004700821017203494860F0BC65
:10261000704770476C09001048000010300000102F
:10262000804004400040044040400440008003508B
:102630000080054000020150330000103C000010F3
:10264000D8000010008004407509001050000010F0
:10265000002203098B4273D3030A8B4258D3030B26
:102660008B423CD3030C8B4221D312E003460B4335
:102670007FD4002243088B4274D303098B425FD37B
:10268000030A8B4244D3030B8B4228D3030C8B42A7
:102690000DD3FF22090212BA030C8B4202D312128D
:1026A000090265D0030B8B4219D300E0090AC30B62
:1026B0008B4201D3CB03C01A5241830B8B4201D30F
:1026C0008B03C01A5241430B8B4201D34B03C01AF8
:1026D0005241030B8B4201D30B03C01A5241C30A70
:1026E0008B4201D3CB02C01A5241830A8B4201D3E1
:1026F0008B02C01A5241430A8B4201D34B02C01ACB
:102700005241030A8B4201D30B02C01A5241CDD26F
:10271000C3098B4201D3CB01C01A524183098B42BA
:1027200001D38B01C01A524143098B4201D34B01A3
:10273000C01A524103098B4201D30B01C01A524106
:10274000C3088B4201D3CB00C01A524183088B428D
:1027500001D38B00C01A524143088B4201D34B0076
:10276000C01A5241411A00D20146524110467047E8
:102770005DE0CA0F00D04942031000D340425340ED
:1027800000229C4603098B422DD3030A8B4212D3AD
:10279000FC22890112BA030A8B420CD389019211DF
:1027A0008B4208D3890192118B4204D389013AD01C
:1027B000921100E08909C3098B4201D3CB01C01AF1
:1027C000524183098B4201D38B01C01A5241430904
:1027D0008B4201D34B01C01A524103098B4201D3F2
:1027E0000B01C01A5241C3088B4201D3CB00C01A5F
:1027F000524183088B4201D38B00C01A5241D9D277
:1028000043088B4201D34B00C01A5241411A00D2F7
:102810000146634652415B10104601D34042002BF3
:1028200000D54942704763465B1000D3404201B572
:102830000020C046C04602BD7047704770477546CD
:1028400000F024F8AE46050069465346C008C000B3
:10285000854618B020B5FDF7CFFC60BC00274908BD
:10286000B6460026C0C5C0C5C0C5C0C5C0C5C0C528
:10287000C0C5C0C5403D49008D46704710B50446EF
:10288000C046C0462046FDF766FC10BD00487047B4
:102890008009001001491820ABBEFEE726000200A7
:1028A0007047000010151A1F1217181D11141B1E57
:1028B0001316191C0020E412FB0911058B024601B6
:1028C000A3005100290014000A00050003000100C4
:1028D000010000005AB55BA55AB55BA5FC280000B5
:1028E0000000001050000000040100004C2900000E
:1028F00050000010900C00002001000000000000BB
:1029000000000000000000000000000000000000C7
:1029100000000000006CDC0200000000000000006D
:1029200000000000000000000000000000000000A7
:102930000000000000000000000000000000000097
:0C2940000000000000000000000000008B
:04000005000000C136
:00000001FF
